{
  "address": "0x7AE95B917E7820233321B1bB0a87d9B7965A3867",
  "abi": [
    {
      "inputs": [
        {
          "internalType": "contract IConnext",
          "name": "_connext",
          "type": "address"
        }
      ],
      "stateMutability": "nonpayable",
      "type": "constructor"
    },
    {
      "anonymous": false,
      "inputs": [
        {
          "indexed": true,
          "internalType": "address",
          "name": "owner",
          "type": "address"
        },
        {
          "indexed": true,
          "internalType": "address",
          "name": "approved",
          "type": "address"
        },
        {
          "indexed": true,
          "internalType": "uint256",
          "name": "tokenId",
          "type": "uint256"
        }
      ],
      "name": "Approval",
      "type": "event"
    },
    {
      "anonymous": false,
      "inputs": [
        {
          "indexed": true,
          "internalType": "address",
          "name": "owner",
          "type": "address"
        },
        {
          "indexed": true,
          "internalType": "address",
          "name": "operator",
          "type": "address"
        },
        {
          "indexed": false,
          "internalType": "bool",
          "name": "approved",
          "type": "bool"
        }
      ],
      "name": "ApprovalForAll",
      "type": "event"
    },
    {
      "anonymous": false,
      "inputs": [
        {
          "indexed": false,
          "internalType": "uint256",
          "name": "tokenId",
          "type": "uint256"
        },
        {
          "indexed": false,
          "internalType": "uint256",
          "name": "proposalId",
          "type": "uint256"
        },
        {
          "indexed": false,
          "internalType": "address",
          "name": "contributor",
          "type": "address"
        }
      ],
      "name": "CertificateGenerated",
      "type": "event"
    },
    {
      "anonymous": false,
      "inputs": [
        {
          "indexed": true,
          "internalType": "address",
          "name": "from",
          "type": "address"
        },
        {
          "indexed": true,
          "internalType": "address",
          "name": "to",
          "type": "address"
        },
        {
          "indexed": true,
          "internalType": "uint256",
          "name": "tokenId",
          "type": "uint256"
        }
      ],
      "name": "Transfer",
      "type": "event"
    },
    {
      "inputs": [],
      "name": "DOMAIN_ID",
      "outputs": [
        {
          "internalType": "uint32",
          "name": "",
          "type": "uint32"
        }
      ],
      "stateMutability": "view",
      "type": "function"
    },
    {
      "inputs": [
        {
          "internalType": "address",
          "name": "to",
          "type": "address"
        },
        {
          "internalType": "uint256",
          "name": "tokenId",
          "type": "uint256"
        }
      ],
      "name": "approve",
      "outputs": [],
      "stateMutability": "nonpayable",
      "type": "function"
    },
    {
      "inputs": [
        {
          "internalType": "address",
          "name": "owner",
          "type": "address"
        }
      ],
      "name": "balanceOf",
      "outputs": [
        {
          "internalType": "uint256",
          "name": "",
          "type": "uint256"
        }
      ],
      "stateMutability": "view",
      "type": "function"
    },
    {
      "inputs": [
        {
          "internalType": "uint256",
          "name": "",
          "type": "uint256"
        }
      ],
      "name": "colors",
      "outputs": [
        {
          "internalType": "string",
          "name": "",
          "type": "string"
        }
      ],
      "stateMutability": "view",
      "type": "function"
    },
    {
      "inputs": [],
      "name": "connext",
      "outputs": [
        {
          "internalType": "contract IConnext",
          "name": "",
          "type": "address"
        }
      ],
      "stateMutability": "view",
      "type": "function"
    },
    {
      "inputs": [
        {
          "internalType": "uint256",
          "name": "tokenId",
          "type": "uint256"
        }
      ],
      "name": "getApproved",
      "outputs": [
        {
          "internalType": "address",
          "name": "",
          "type": "address"
        }
      ],
      "stateMutability": "view",
      "type": "function"
    },
    {
      "inputs": [
        {
          "internalType": "address",
          "name": "owner",
          "type": "address"
        },
        {
          "internalType": "address",
          "name": "operator",
          "type": "address"
        }
      ],
      "name": "isApprovedForAll",
      "outputs": [
        {
          "internalType": "bool",
          "name": "",
          "type": "bool"
        }
      ],
      "stateMutability": "view",
      "type": "function"
    },
    {
      "inputs": [],
      "name": "name",
      "outputs": [
        {
          "internalType": "string",
          "name": "",
          "type": "string"
        }
      ],
      "stateMutability": "view",
      "type": "function"
    },
    {
      "inputs": [
        {
          "internalType": "uint256",
          "name": "tokenId",
          "type": "uint256"
        }
      ],
      "name": "ownerOf",
      "outputs": [
        {
          "internalType": "address",
          "name": "",
          "type": "address"
        }
      ],
      "stateMutability": "view",
      "type": "function"
    },
    {
      "inputs": [
        {
          "internalType": "address",
          "name": "from",
          "type": "address"
        },
        {
          "internalType": "address",
          "name": "to",
          "type": "address"
        },
        {
          "internalType": "uint256",
          "name": "tokenId",
          "type": "uint256"
        }
      ],
      "name": "safeTransferFrom",
      "outputs": [],
      "stateMutability": "nonpayable",
      "type": "function"
    },
    {
      "inputs": [
        {
          "internalType": "address",
          "name": "from",
          "type": "address"
        },
        {
          "internalType": "address",
          "name": "to",
          "type": "address"
        },
        {
          "internalType": "uint256",
          "name": "tokenId",
          "type": "uint256"
        },
        {
          "internalType": "bytes",
          "name": "data",
          "type": "bytes"
        }
      ],
      "name": "safeTransferFrom",
      "outputs": [],
      "stateMutability": "nonpayable",
      "type": "function"
    },
    {
      "inputs": [
        {
          "internalType": "address",
          "name": "operator",
          "type": "address"
        },
        {
          "internalType": "bool",
          "name": "approved",
          "type": "bool"
        }
      ],
      "name": "setApprovalForAll",
      "outputs": [],
      "stateMutability": "nonpayable",
      "type": "function"
    },
    {
      "inputs": [
        {
          "internalType": "bytes4",
          "name": "interfaceId",
          "type": "bytes4"
        }
      ],
      "name": "supportsInterface",
      "outputs": [
        {
          "internalType": "bool",
          "name": "",
          "type": "bool"
        }
      ],
      "stateMutability": "view",
      "type": "function"
    },
    {
      "inputs": [],
      "name": "symbol",
      "outputs": [
        {
          "internalType": "string",
          "name": "",
          "type": "string"
        }
      ],
      "stateMutability": "view",
      "type": "function"
    },
    {
      "inputs": [
        {
          "internalType": "uint256",
          "name": "index",
          "type": "uint256"
        }
      ],
      "name": "tokenByIndex",
      "outputs": [
        {
          "internalType": "uint256",
          "name": "",
          "type": "uint256"
        }
      ],
      "stateMutability": "view",
      "type": "function"
    },
    {
      "inputs": [
        {
          "internalType": "address",
          "name": "owner",
          "type": "address"
        },
        {
          "internalType": "uint256",
          "name": "index",
          "type": "uint256"
        }
      ],
      "name": "tokenOfOwnerByIndex",
      "outputs": [
        {
          "internalType": "uint256",
          "name": "",
          "type": "uint256"
        }
      ],
      "stateMutability": "view",
      "type": "function"
    },
    {
      "inputs": [
        {
          "internalType": "uint256",
          "name": "id",
          "type": "uint256"
        }
      ],
      "name": "tokenURI",
      "outputs": [
        {
          "internalType": "string",
          "name": "json",
          "type": "string"
        }
      ],
      "stateMutability": "view",
      "type": "function"
    },
    {
      "inputs": [],
      "name": "totalMint",
      "outputs": [
        {
          "internalType": "uint256",
          "name": "",
          "type": "uint256"
        }
      ],
      "stateMutability": "view",
      "type": "function"
    },
    {
      "inputs": [],
      "name": "totalSupply",
      "outputs": [
        {
          "internalType": "uint256",
          "name": "",
          "type": "uint256"
        }
      ],
      "stateMutability": "view",
      "type": "function"
    },
    {
      "inputs": [
        {
          "internalType": "address",
          "name": "from",
          "type": "address"
        },
        {
          "internalType": "address",
          "name": "to",
          "type": "address"
        },
        {
          "internalType": "uint256",
          "name": "tokenId",
          "type": "uint256"
        }
      ],
      "name": "transferFrom",
      "outputs": [],
      "stateMutability": "nonpayable",
      "type": "function"
    },
    {
      "inputs": [
        {
          "internalType": "uint256",
          "name": "_id",
          "type": "uint256"
        },
        {
          "internalType": "address",
          "name": "_target",
          "type": "address"
        },
        {
          "internalType": "uint256",
          "name": "_proposalId",
          "type": "uint256"
        }
      ],
      "name": "withhdrawFunds",
      "outputs": [],
      "stateMutability": "nonpayable",
      "type": "function"
    },
    {
      "inputs": [
        {
          "internalType": "bytes32",
          "name": "_transferId",
          "type": "bytes32"
        },
        {
          "internalType": "uint256",
          "name": "_amount",
          "type": "uint256"
        },
        {
          "internalType": "address",
          "name": "_asset",
          "type": "address"
        },
        {
          "internalType": "address",
          "name": "_originSender",
          "type": "address"
        },
        {
          "internalType": "uint32",
          "name": "_origin",
          "type": "uint32"
        },
        {
          "internalType": "bytes",
          "name": "_callData",
          "type": "bytes"
        }
      ],
      "name": "xReceive",
      "outputs": [
        {
          "internalType": "bytes",
          "name": "",
          "type": "bytes"
        }
      ],
      "stateMutability": "nonpayable",
      "type": "function"
    }
  ],
  "transactionHash": "0x39f6518badef8811e21f737aa650c6de920739664f2c2cbe641f37ea8587cb2f",
  "args": [
    "0xb35937ce4fFB5f72E90eAD83c10D33097a4F18D2"
  ],
  "solcInputHash": "4bd32428d1428ca62b05bda8a88766bd",
  "bytecode": "0x60076101008181526611a1a21ba3199960c91b6101205260a09081526101408281526611a29aa29a229960c91b6101605260c0526101c0604052610180918252660234646443730360cc1b6101a05260e0919091526200006490600a9060036200010e565b503480156200007257600080fd5b5060405162002781380380620027818339810160408190526200009591620001d8565b6040518060400160405280600f81526020016e4e465420436572746966696163746560881b815250604051806040016040528060038152602001624e464360e81b8152508160009081620000ea9190620002af565b506001620000f98282620002af565b5050506001600160a01b03166080526200037b565b82600381019282156200014c579160200282015b828111156200014c57825182906200013b9082620002af565b509160200191906001019062000122565b506200015a9291506200015e565b5090565b808211156200015a5760006200017582826200017f565b506001016200015e565b5080546200018d9062000220565b6000825580601f106200019e575050565b601f016020900490600052602060002090810190620001be9190620001c1565b50565b5b808211156200015a5760008155600101620001c2565b600060208284031215620001eb57600080fd5b81516001600160a01b03811681146200020357600080fd5b9392505050565b634e487b7160e01b600052604160045260246000fd5b600181811c908216806200023557607f821691505b6020821081036200025657634e487b7160e01b600052602260045260246000fd5b50919050565b601f821115620002aa57600081815260208120601f850160051c81016020861015620002855750805b601f850160051c820191505b81811015620002a65782815560010162000291565b5050505b505050565b81516001600160401b03811115620002cb57620002cb6200020a565b620002e381620002dc845462000220565b846200025c565b602080601f8311600181146200031b5760008415620003025750858301515b600019600386901b1c1916600185901b178555620002a6565b600085815260208120601f198616915b828110156200034c578886015182559484019460019091019084016200032b565b50858210156200036b5787850151600019600388901b60f8161c191681555b5050505050600190811b01905550565b6080516123e36200039e600039600081816102da01526107ed01526123e36000f3fe608060405234801561001057600080fd5b50600436106101425760003560e01c806370a08231116100b8578063b88d4fde1161007c578063b88d4fde1461029c578063bd11f69d146102af578063c87b56dd146102c2578063de4b0548146102d5578063e985e9c5146102fc578063fd614f411461033857600080fd5b806370a082311461023d578063820cc557146102505780638607c0041461026e57806395d89b4114610281578063a22cb4651461028957600080fd5b806323b872dd1161010a57806323b872dd146101d65780632f745c59146101e957806342842e0e146101fc5780634f6ccce71461020f57806359a7715a146102225780636352211e1461022a57600080fd5b806301ffc9a71461014757806306fdde031461016f578063081812fc14610184578063095ea7b3146101af57806318160ddd146101c4575b600080fd5b61015a610155366004611898565b61034b565b60405190151581526020015b60405180910390f35b610177610376565b604051610166919061190c565b61019761019236600461191f565b610408565b6040516001600160a01b039091168152602001610166565b6101c26101bd36600461194d565b61042f565b005b6008545b604051908152602001610166565b6101c26101e4366004611979565b610549565b6101c86101f736600461194d565b61057a565b6101c261020a366004611979565b610610565b6101c861021d36600461191f565b61062b565b6101c86106be565b61019761023836600461191f565b6106ce565b6101c861024b3660046119ba565b61072e565b61025961270781565b60405163ffffffff9091168152602001610166565b6101c261027c3660046119d7565b6107b4565b610177610883565b6101c26102973660046119fe565b610892565b6101c26102aa366004611adf565b6108a1565b6101776102bd36600461191f565b6108d9565b6101776102d036600461191f565b610979565b6101977f000000000000000000000000000000000000000000000000000000000000000081565b61015a61030a366004611b4b565b6001600160a01b03918216600090815260056020908152604080832093909416825291909152205460ff1690565b610177610346366004611b79565b6109d2565b60006001600160e01b0319821663780e9d6360e01b1480610370575061037082610b62565b92915050565b60606000805461038590611c09565b80601f01602080910402602001604051908101604052809291908181526020018280546103b190611c09565b80156103fe5780601f106103d3576101008083540402835291602001916103fe565b820191906000526020600020905b8154815290600101906020018083116103e157829003601f168201915b5050505050905090565b600061041382610bb2565b506000908152600460205260409020546001600160a01b031690565b600061043a826106ce565b9050806001600160a01b0316836001600160a01b0316036104ac5760405162461bcd60e51b815260206004820152602160248201527f4552433732313a20617070726f76616c20746f2063757272656e74206f776e656044820152603960f91b60648201526084015b60405180910390fd5b336001600160a01b03821614806104c857506104c8813361030a565b61053a5760405162461bcd60e51b815260206004820152603e60248201527f4552433732313a20617070726f76652063616c6c6572206973206e6f7420746f60448201527f6b656e206f776e6572206e6f7220617070726f76656420666f7220616c6c000060648201526084016104a3565b6105448383610c14565b505050565b6105533382610c82565b61056f5760405162461bcd60e51b81526004016104a390611c43565b610544838383610d01565b60006105858361072e565b82106105e75760405162461bcd60e51b815260206004820152602b60248201527f455243373231456e756d657261626c653a206f776e657220696e646578206f7560448201526a74206f6620626f756e647360a81b60648201526084016104a3565b506001600160a01b03919091166000908152600660209081526040808320938352929052205490565b610544838383604051806020016040528060008152506108a1565b600061063660085490565b82106106995760405162461bcd60e51b815260206004820152602c60248201527f455243373231456e756d657261626c653a20676c6f62616c20696e646578206f60448201526b7574206f6620626f756e647360a01b60648201526084016104a3565b600882815481106106ac576106ac611c91565b90600052602060002001549050919050565b60006106c9600e5490565b905090565b6000818152600260205260408120546001600160a01b0316806103705760405162461bcd60e51b8152602060048201526018602482015277115490cdcc8c4e881a5b9d985b1a59081d1bdad95b88125160421b60448201526064016104a3565b60006001600160a01b0382166107985760405162461bcd60e51b815260206004820152602960248201527f4552433732313a2061646472657373207a65726f206973206e6f7420612076616044820152683634b21037bbb732b960b91b60648201526084016104a3565b506001600160a01b031660009081526003602052604090205490565b6107bd83610ea8565b60408051336020820181905281830184905282518083038401815260608301938490526345560b5d60e11b9093527f00000000000000000000000000000000000000000000000000000000000000006001600160a01b031691638aac16ba91600091610839916127079189918591829081908b90606401611ca7565b60206040518083038185885af1158015610857573d6000803e3d6000fd5b50505050506040513d601f19601f8201168201806040525081019061087c9190611d02565b5050505050565b60606001805461038590611c09565b61089d338383610f4f565b5050565b6108ab3383610c82565b6108c75760405162461bcd60e51b81526004016104a390611c43565b6108d38484848461101d565b50505050565b600a81600381106108e957600080fd5b0180549091506108f890611c09565b80601f016020809104026020016040519081016040528092919081815260200182805461092490611c09565b80156109715780601f1061094657610100808354040283529160200191610971565b820191906000526020600020905b81548152906001019060200180831161095457829003601f168201915b505050505081565b6000818152600260205260409020546060906001600160a01b03166109c95760405162461bcd60e51b815260206004820152600660248201526508595e1a5cdd60d21b60448201526064016104a3565b61037082611050565b60606000806000848060200190518101906109ed9190611d1b565b925092509250610a01600e80546001019055565b6000610a0c600e5490565b905066b1a2bc2ec50000836001600160801b031611610a6a576040518060400160405280600781526020016611a1a21ba3199960c91b815250600d60008381526020019081526020016000209081610a649190611db8565b50610b02565b67016345785d8a0000836001600160801b031611610ac1576040518060400160405280600781526020016611a29aa29a229960c91b815250600d60008381526020019081526020016000209081610a649190611db8565b604051806040016040528060078152602001660234646443730360cc1b815250600d60008381526020019081526020016000209081610b009190611db8565b505b610b0c8482611180565b60408051828152602081018490526001600160a01b0386168183015290517f96bede11ec018606dc46cbd61d8bf343d2e57353931e6aed3e99fe2baaaa59a99181900360600190a1505050509695505050505050565b60006001600160e01b031982166380ac58cd60e01b1480610b9357506001600160e01b03198216635b5e139f60e01b145b8061037057506301ffc9a760e01b6001600160e01b0319831614610370565b6000818152600260205260409020546001600160a01b0316610c115760405162461bcd60e51b8152602060048201526018602482015277115490cdcc8c4e881a5b9d985b1a59081d1bdad95b88125160421b60448201526064016104a3565b50565b600081815260046020526040902080546001600160a01b0319166001600160a01b0384169081179091558190610c49826106ce565b6001600160a01b03167f8c5be1e5ebec7d5bd14f71427d1e84f3dd0314c0f7b2291e5b200ac8c7c3b92560405160405180910390a45050565b600080610c8e836106ce565b9050806001600160a01b0316846001600160a01b03161480610cd557506001600160a01b0380821660009081526005602090815260408083209388168352929052205460ff165b80610cf95750836001600160a01b0316610cee84610408565b6001600160a01b0316145b949350505050565b826001600160a01b0316610d14826106ce565b6001600160a01b031614610d785760405162461bcd60e51b815260206004820152602560248201527f4552433732313a207472616e736665722066726f6d20696e636f72726563742060448201526437bbb732b960d91b60648201526084016104a3565b6001600160a01b038216610dda5760405162461bcd60e51b8152602060048201526024808201527f4552433732313a207472616e7366657220746f20746865207a65726f206164646044820152637265737360e01b60648201526084016104a3565b610de58383836112ce565b610df0600082610c14565b6001600160a01b0383166000908152600360205260408120805460019290610e19908490611e8e565b90915550506001600160a01b0382166000908152600360205260408120805460019290610e47908490611ea1565b909155505060008181526002602052604080822080546001600160a01b0319166001600160a01b0386811691821790925591518493918716917fddf252ad1be2c89b69c2b068fc378daa952ba7f163c4a11628f55a4df523b3ef91a4505050565b6000610eb3826106ce565b9050610ec1816000846112ce565b610ecc600083610c14565b6001600160a01b0381166000908152600360205260408120805460019290610ef5908490611e8e565b909155505060008281526002602052604080822080546001600160a01b0319169055518391906001600160a01b038416907fddf252ad1be2c89b69c2b068fc378daa952ba7f163c4a11628f55a4df523b3ef908390a45050565b816001600160a01b0316836001600160a01b031603610fb05760405162461bcd60e51b815260206004820152601960248201527f4552433732313a20617070726f766520746f2063616c6c65720000000000000060448201526064016104a3565b6001600160a01b03838116600081815260056020908152604080832094871680845294825291829020805460ff191686151590811790915591519182527f17307eab39ab6107e8899845ad3d59bd9653f200f220920489ca2b5937696c31910160405180910390a3505050565b611028848484610d01565b61103484848484611386565b6108d35760405162461bcd60e51b81526004016104a390611eb4565b6060600061105d83611487565b6000848152600d602052604081208054929350909161107b90611c09565b80601f01602080910402602001604051908101604052809291908181526020018280546110a790611c09565b80156110f45780601f106110c9576101008083540402835291602001916110f4565b820191906000526020600020905b8154815290600101906020018083116110d757829003601f168201915b5050505050905060008160405160200161110e9190611f06565b604051602081830303815290604052905060006111538461112e84611588565b60405160200161113f929190612154565b604051602081830303815290604052611588565b905080604051602001611166919061224a565b604051602081830303815290604052945050505050919050565b6001600160a01b0382166111d65760405162461bcd60e51b815260206004820181905260248201527f4552433732313a206d696e7420746f20746865207a65726f206164647265737360448201526064016104a3565b6000818152600260205260409020546001600160a01b03161561123b5760405162461bcd60e51b815260206004820152601c60248201527f4552433732313a20746f6b656e20616c7265616479206d696e7465640000000060448201526064016104a3565b611247600083836112ce565b6001600160a01b0382166000908152600360205260408120805460019290611270908490611ea1565b909155505060008181526002602052604080822080546001600160a01b0319166001600160a01b03861690811790915590518392907fddf252ad1be2c89b69c2b068fc378daa952ba7f163c4a11628f55a4df523b3ef908290a45050565b6001600160a01b0383166113295761132481600880546000838152600960205260408120829055600182018355919091527ff3f7a9fe364faab93b216da50a3214154f22a0a2b415b23a84c8169e8b636ee30155565b61134c565b816001600160a01b0316836001600160a01b03161461134c5761134c83826116f2565b6001600160a01b038216611363576105448161178f565b826001600160a01b0316826001600160a01b03161461054457610544828261183e565b60006001600160a01b0384163b1561147c57604051630a85bd0160e11b81526001600160a01b0385169063150b7a02906113ca90339089908890889060040161228f565b6020604051808303816000875af1925050508015611405575060408051601f3d908101601f19168201909252611402918101906122cc565b60015b611462573d808015611433576040519150601f19603f3d011682016040523d82523d6000602084013e611438565b606091505b50805160000361145a5760405162461bcd60e51b81526004016104a390611eb4565b805181602001fd5b6001600160e01b031916630a85bd0160e11b149050610cf9565b506001949350505050565b6060816000036114ae5750506040805180820190915260018152600360fc1b602082015290565b8160005b81156114d857806114c2816122e9565b91506114d19050600a83612318565b91506114b2565b60008167ffffffffffffffff8111156114f3576114f3611a3c565b6040519080825280601f01601f19166020018201604052801561151d576020820181803683370190505b5090505b8415610cf957611532600183611e8e565b915061153f600a8661232c565b61154a906030611ea1565b60f81b81838151811061155f5761155f611c91565b60200101906001600160f81b031916908160001a905350611581600a86612318565b9450611521565b805160609060008190036115ac575050604080516020810190915260008152919050565b600060036115bb836002611ea1565b6115c59190612318565b6115d0906004612340565b905060006115df826020611ea1565b67ffffffffffffffff8111156115f7576115f7611a3c565b6040519080825280601f01601f191660200182016040528015611621576020820181803683370190505b509050600060405180606001604052806040815260200161236e604091399050600181016020830160005b868110156116ad576003818a01810151603f601282901c8116860151600c83901c8216870151600684901c831688015192909316870151600891821b60ff94851601821b92841692909201901b91160160e01b83526004909201910161164c565b5060038606600181146116c757600281146116d8576116e4565b613d3d60f01b6001198301526116e4565b603d60f81b6000198301525b505050918152949350505050565b600060016116ff8461072e565b6117099190611e8e565b60008381526007602052604090205490915080821461175c576001600160a01b03841660009081526006602090815260408083208584528252808320548484528184208190558352600790915290208190555b5060009182526007602090815260408084208490556001600160a01b039094168352600681528383209183525290812055565b6008546000906117a190600190611e8e565b600083815260096020526040812054600880549394509092849081106117c9576117c9611c91565b9060005260206000200154905080600883815481106117ea576117ea611c91565b600091825260208083209091019290925582815260099091526040808220849055858252812055600880548061182257611822612357565b6001900381819060005260206000200160009055905550505050565b60006118498361072e565b6001600160a01b039093166000908152600660209081526040808320868452825280832085905593825260079052919091209190915550565b6001600160e01b031981168114610c1157600080fd5b6000602082840312156118aa57600080fd5b81356118b581611882565b9392505050565b60005b838110156118d75781810151838201526020016118bf565b50506000910152565b600081518084526118f88160208601602086016118bc565b601f01601f19169290920160200192915050565b6020815260006118b560208301846118e0565b60006020828403121561193157600080fd5b5035919050565b6001600160a01b0381168114610c1157600080fd5b6000806040838503121561196057600080fd5b823561196b81611938565b946020939093013593505050565b60008060006060848603121561198e57600080fd5b833561199981611938565b925060208401356119a981611938565b929592945050506040919091013590565b6000602082840312156119cc57600080fd5b81356118b581611938565b6000806000606084860312156119ec57600080fd5b8335925060208401356119a981611938565b60008060408385031215611a1157600080fd5b8235611a1c81611938565b915060208301358015158114611a3157600080fd5b809150509250929050565b634e487b7160e01b600052604160045260246000fd5b600082601f830112611a6357600080fd5b813567ffffffffffffffff80821115611a7e57611a7e611a3c565b604051601f8301601f19908116603f01168101908282118183101715611aa657611aa6611a3c565b81604052838152866020858801011115611abf57600080fd5b836020870160208301376000602085830101528094505050505092915050565b60008060008060808587031215611af557600080fd5b8435611b0081611938565b93506020850135611b1081611938565b925060408501359150606085013567ffffffffffffffff811115611b3357600080fd5b611b3f87828801611a52565b91505092959194509250565b60008060408385031215611b5e57600080fd5b8235611b6981611938565b91506020830135611a3181611938565b60008060008060008060c08789031215611b9257600080fd5b86359550602087013594506040870135611bab81611938565b93506060870135611bbb81611938565b9250608087013563ffffffff81168114611bd457600080fd5b915060a087013567ffffffffffffffff811115611bf057600080fd5b611bfc89828a01611a52565b9150509295509295509295565b600181811c90821680611c1d57607f821691505b602082108103611c3d57634e487b7160e01b600052602260045260246000fd5b50919050565b6020808252602e908201527f4552433732313a2063616c6c6572206973206e6f7420746f6b656e206f776e6560408201526d1c881b9bdc88185c1c1c9bdd995960921b606082015260800190565b634e487b7160e01b600052603260045260246000fd5b63ffffffff881681526001600160a01b0387811660208301528681166040830152851660608201526080810184905260a0810183905260e060c08201819052600090611cf5908301846118e0565b9998505050505050505050565b600060208284031215611d1457600080fd5b5051919050565b600080600060608486031215611d3057600080fd5b8351611d3b81611938565b60208501519093506001600160801b0381168114611d5857600080fd5b80925050604084015190509250925092565b601f82111561054457600081815260208120601f850160051c81016020861015611d915750805b601f850160051c820191505b81811015611db057828155600101611d9d565b505050505050565b815167ffffffffffffffff811115611dd257611dd2611a3c565b611de681611de08454611c09565b84611d6a565b602080601f831160018114611e1b5760008415611e035750858301515b600019600386901b1c1916600185901b178555611db0565b600085815260208120601f198616915b82811015611e4a57888601518255948401946001909101908401611e2b565b5085821015611e685787850151600019600388901b60f8161c191681555b5050505050600190811b01905550565b634e487b7160e01b600052601160045260246000fd5b8181038181111561037057610370611e78565b8082018082111561037057610370611e78565b60208082526032908201527f4552433732313a207472616e7366657220746f206e6f6e20455243373231526560408201527131b2b4bb32b91034b6b83632b6b2b73a32b960711b606082015260800190565b7f3c73766720786d6c6e733d22687474703a2f2f7777772e77332e6f72672f323081527f30302f737667222077696474683d2232353022206865696768743d223135302260208201527f207374796c653d22626f726465723a31707820736f6c6964207265643b20626160408201526e31b5b3b937bab73216b1b7b637b91d60891b606082015260008251611fa281606f8501602087016118bc565b61111f60f11b606f918401918201527f3c7465787420783d2232302220793d223235222066696c6c3d22707572706c65607182015269111f102a34ba3632901d60b11b60918201526f151a1a5cc81a5cc81c1c9bdc1bdcd85b60821b609b820152610cf96121426120d06121196120e3826120b061207a61203360ab8a01661e17ba32bc3a1f60c91b815260070190565b7f3c7465787420783d2232302220793d223535222066696c6c3d22707572706c65815274111f102132b732b334ba39901d101e17ba32bc3a1f60591b602082015260350190565b7f3c7465787420783d2232302220793d223735222066696c6c3d22707572706c65815263223e312960e01b602082015260240190565b73363025206f6666206f6e206d65646963696e657360601b815260140190565b661e17ba32bc3a1f60c91b815260070190565b7f3c7465787420783d2232302220793d223935222066696c6c3d22707572706c65815263223e322960e01b602082015260240190565b7f4c6966652074696d65206672656520686f6d652064656c6976657279000000008152601c0190565b651e17b9bb339f60d11b815260060190565b6f7b20226e616d65223a20224e4643202360801b815282516000906121808160108501602088016118bc565b7f222c20226465736372697074696f6e223a20224e4643206973206120696e69746010918401918201527f6963617469766520666f722077656c6c6e65737320616e6420676f6f646e657360308201527f7320746f776f72647320746865206e657720776f726c642e222c2022696d616760508201527f65223a2022646174613a696d6167652f7376672b786d6c3b6261736536342c006070820152835161222f81608f8401602088016118bc565b61227d60f01b608f9290910191820152609101949350505050565b7f646174613a6170706c69636174696f6e2f6a736f6e3b6261736536342c00000081526000825161228281601d8501602087016118bc565b91909101601d0192915050565b6001600160a01b03858116825284166020820152604081018390526080606082018190526000906122c2908301846118e0565b9695505050505050565b6000602082840312156122de57600080fd5b81516118b581611882565b6000600182016122fb576122fb611e78565b5060010190565b634e487b7160e01b600052601260045260246000fd5b60008261232757612327612302565b500490565b60008261233b5761233b612302565b500690565b808202811582820484141761037057610370611e78565b634e487b7160e01b600052603160045260246000fdfe4142434445464748494a4b4c4d4e4f505152535455565758595a6162636465666768696a6b6c6d6e6f707172737475767778797a303132333435363738392b2fa2646970667358221220ec99b2e7f7e7533c95ceaa84f4c8c00965e9e87efd13da465bb7fc272afdc62d64736f6c63430008110033",
  "devdoc": {
    "kind": "dev",
    "methods": {
      "approve(address,uint256)": {
        "details": "See {IERC721-approve}."
      },
      "balanceOf(address)": {
        "details": "See {IERC721-balanceOf}."
      },
      "getApproved(uint256)": {
        "details": "See {IERC721-getApproved}."
      },
      "isApprovedForAll(address,address)": {
        "details": "See {IERC721-isApprovedForAll}."
      },
      "name()": {
        "details": "See {IERC721Metadata-name}."
      },
      "ownerOf(uint256)": {
        "details": "See {IERC721-ownerOf}."
      },
      "safeTransferFrom(address,address,uint256)": {
        "details": "See {IERC721-safeTransferFrom}."
      },
      "safeTransferFrom(address,address,uint256,bytes)": {
        "details": "See {IERC721-safeTransferFrom}."
      },
      "setApprovalForAll(address,bool)": {
        "details": "See {IERC721-setApprovalForAll}."
      },
      "supportsInterface(bytes4)": {
        "details": "See {IERC165-supportsInterface}."
      },
      "symbol()": {
        "details": "See {IERC721Metadata-symbol}."
      },
      "tokenByIndex(uint256)": {
        "details": "See {IERC721Enumerable-tokenByIndex}."
      },
      "tokenOfOwnerByIndex(address,uint256)": {
        "details": "See {IERC721Enumerable-tokenOfOwnerByIndex}."
      },
      "totalSupply()": {
        "details": "See {IERC721Enumerable-totalSupply}."
      },
      "transferFrom(address,address,uint256)": {
        "details": "See {IERC721-transferFrom}."
      }
    },
    "version": 1
  },
  "userdoc": {
    "kind": "user",
    "methods": {},
    "version": 1
  },
  "storageLayout": {
    "storage": [
      {
        "astId": 10967,
        "contract": "contracts/NFC.sol:NFC",
        "label": "_name",
        "offset": 0,
        "slot": "0",
        "type": "t_string_storage"
      },
      {
        "astId": 10969,
        "contract": "contracts/NFC.sol:NFC",
        "label": "_symbol",
        "offset": 0,
        "slot": "1",
        "type": "t_string_storage"
      },
      {
        "astId": 10973,
        "contract": "contracts/NFC.sol:NFC",
        "label": "_owners",
        "offset": 0,
        "slot": "2",
        "type": "t_mapping(t_uint256,t_address)"
      },
      {
        "astId": 10977,
        "contract": "contracts/NFC.sol:NFC",
        "label": "_balances",
        "offset": 0,
        "slot": "3",
        "type": "t_mapping(t_address,t_uint256)"
      },
      {
        "astId": 10981,
        "contract": "contracts/NFC.sol:NFC",
        "label": "_tokenApprovals",
        "offset": 0,
        "slot": "4",
        "type": "t_mapping(t_uint256,t_address)"
      },
      {
        "astId": 10987,
        "contract": "contracts/NFC.sol:NFC",
        "label": "_operatorApprovals",
        "offset": 0,
        "slot": "5",
        "type": "t_mapping(t_address,t_mapping(t_address,t_bool))"
      },
      {
        "astId": 11957,
        "contract": "contracts/NFC.sol:NFC",
        "label": "_ownedTokens",
        "offset": 0,
        "slot": "6",
        "type": "t_mapping(t_address,t_mapping(t_uint256,t_uint256))"
      },
      {
        "astId": 11961,
        "contract": "contracts/NFC.sol:NFC",
        "label": "_ownedTokensIndex",
        "offset": 0,
        "slot": "7",
        "type": "t_mapping(t_uint256,t_uint256)"
      },
      {
        "astId": 11964,
        "contract": "contracts/NFC.sol:NFC",
        "label": "_allTokens",
        "offset": 0,
        "slot": "8",
        "type": "t_array(t_uint256)dyn_storage"
      },
      {
        "astId": 11968,
        "contract": "contracts/NFC.sol:NFC",
        "label": "_allTokensIndex",
        "offset": 0,
        "slot": "9",
        "type": "t_mapping(t_uint256,t_uint256)"
      },
      {
        "astId": 13518,
        "contract": "contracts/NFC.sol:NFC",
        "label": "colors",
        "offset": 0,
        "slot": "10",
        "type": "t_array(t_string_storage)3_storage"
      },
      {
        "astId": 13522,
        "contract": "contracts/NFC.sol:NFC",
        "label": "idToColor",
        "offset": 0,
        "slot": "13",
        "type": "t_mapping(t_uint256,t_string_storage)"
      },
      {
        "astId": 13532,
        "contract": "contracts/NFC.sol:NFC",
        "label": "_tokenIds",
        "offset": 0,
        "slot": "14",
        "type": "t_struct(Counter)12661_storage"
      }
    ],
    "types": {
      "t_address": {
        "encoding": "inplace",
        "label": "address",
        "numberOfBytes": "20"
      },
      "t_array(t_string_storage)3_storage": {
        "base": "t_string_storage",
        "encoding": "inplace",
        "label": "string[3]",
        "numberOfBytes": "96"
      },
      "t_array(t_uint256)dyn_storage": {
        "base": "t_uint256",
        "encoding": "dynamic_array",
        "label": "uint256[]",
        "numberOfBytes": "32"
      },
      "t_bool": {
        "encoding": "inplace",
        "label": "bool",
        "numberOfBytes": "1"
      },
      "t_mapping(t_address,t_bool)": {
        "encoding": "mapping",
        "key": "t_address",
        "label": "mapping(address => bool)",
        "numberOfBytes": "32",
        "value": "t_bool"
      },
      "t_mapping(t_address,t_mapping(t_address,t_bool))": {
        "encoding": "mapping",
        "key": "t_address",
        "label": "mapping(address => mapping(address => bool))",
        "numberOfBytes": "32",
        "value": "t_mapping(t_address,t_bool)"
      },
      "t_mapping(t_address,t_mapping(t_uint256,t_uint256))": {
        "encoding": "mapping",
        "key": "t_address",
        "label": "mapping(address => mapping(uint256 => uint256))",
        "numberOfBytes": "32",
        "value": "t_mapping(t_uint256,t_uint256)"
      },
      "t_mapping(t_address,t_uint256)": {
        "encoding": "mapping",
        "key": "t_address",
        "label": "mapping(address => uint256)",
        "numberOfBytes": "32",
        "value": "t_uint256"
      },
      "t_mapping(t_uint256,t_address)": {
        "encoding": "mapping",
        "key": "t_uint256",
        "label": "mapping(uint256 => address)",
        "numberOfBytes": "32",
        "value": "t_address"
      },
      "t_mapping(t_uint256,t_string_storage)": {
        "encoding": "mapping",
        "key": "t_uint256",
        "label": "mapping(uint256 => string)",
        "numberOfBytes": "32",
        "value": "t_string_storage"
      },
      "t_mapping(t_uint256,t_uint256)": {
        "encoding": "mapping",
        "key": "t_uint256",
        "label": "mapping(uint256 => uint256)",
        "numberOfBytes": "32",
        "value": "t_uint256"
      },
      "t_string_storage": {
        "encoding": "bytes",
        "label": "string",
        "numberOfBytes": "32"
      },
      "t_struct(Counter)12661_storage": {
        "encoding": "inplace",
        "label": "struct Counters.Counter",
        "members": [
          {
            "astId": 12660,
            "contract": "contracts/NFC.sol:NFC",
            "label": "_value",
            "offset": 0,
            "slot": "0",
            "type": "t_uint256"
          }
        ],
        "numberOfBytes": "32"
      },
      "t_uint256": {
        "encoding": "inplace",
        "label": "uint256",
        "numberOfBytes": "32"
      }
    }
  }
}